:1000000009C021C020C092C01EC01DC01CC01BC0A2
:100010001AC019C011241FBECFE9CDBF10E0A0E661
:10002000B0E0E6EDF3E002C005900D92A636B10710
:10003000D9F720E0A6E6B0E001C01D92A837B207CC
:10004000E1F7E0D0C6C1DCCFCF92DF92EF92FF9212
:10005000CF93C82FC62E6091690070916A0080E02E
:1000600090E02FEF30E040E050E000D1A62F20914B
:10007000730030917400D12CCC1AD108EE24D7FC37
:10008000E094FE2C40E050E06A2F09D1C701B60190
:10009000EDD02FEF30E040E050E023D18C2F820FE5
:1000A000CF91FF90EF90DF90CF900895CF93DF93A3
:1000B000CBE6D0E0888180937000ACE6B0E08C9114
:1000C00080937100EDE6F0E0808180937200809172
:1000D00068008883809167008C938091640080839E
:1000E000E0916F00F0E0EC0FFD1F10826091650061
:1000F00070E080E090E023E930E040E050E0B6D0EE
:100100002AE030E040E050E0ECD0309374002093DF
:10011000730010926600DF91CF9108954DD12AEFC0
:1001200030E040E050E0DDD0862F08951F920F921E
:100130000FB60F9211242F933F934F935F936F93BA
:100140007F938F939F93AF93BF93CF93EF93FF933F
:10015000C0916E00C1112EC060916B008091700043
:1001600073DF8093750060916C00809171006CDF8B
:100170008093760060916D008091720065DF8093BE
:1001800077008091690090916A00019690936A00CF
:10019000809369002091690030916A00809173001A
:1001A000909174002817390728F010926A00109275
:1001B00069007CDF81E090917500C91708F080E04C
:1001C00090917600C91708F4826090917700C91762
:1001D00008F4846088BB80916E008F5F80936E000E
:1001E000FF91EF91CF91BF91AF919F918F917F91AF
:1001F0006F915F914F913F912F910F900FBE0F9094
:100200001F90189553DF81E083BF82E089BF8FEF95
:1002100087BB789482E3882E912CA12CB12C93E09B
:10022000C92ED12CE12CF12CC1E080916600811106
:10023000FCCFC2D0A501940154D060936500809199
:100240006500825E80936500B7D0A701960149D012
:1002500060936F0063DF8093680060DF80936700C6
:100260005DDF80936400C0936600DFCFFF27EE2739
:10027000BB27AA2760FF04C0A20FB31FE41FF51F0E
:10028000220F331F441F551F9695879577956795C5
:1002900089F70097760771F7CF01BD010895A1E2B4
:1002A0001A2EAA1BBB1BFD010DC0AA1FBB1FEE1FF0
:1002B000FF1FA217B307E407F50720F0A21BB30B3B
:1002C000E40BF50B661F771F881F991F1A9469F7B7
:1002D00060957095809590959B01AC01BD01CF0113
:1002E0000895052E97FB16F4009406D057FD0CD008
:1002F000D6DF07FC09D07EF49095809570956195C6
:100300007F4F8F4F9F4F0895509540953095219581
:100310003F4F4F4F5F4F08958F929F92AF92BF9282
:10032000CF92DF92EF92FF92CF93DF93EC0168813F
:1003300079818A819B81611571058105910521F47F
:1003400064E279ED8BE597E02DE133EF41E050E099
:10035000C8DF49015A0127EA31E440E050E086DF76
:100360006B017C012CEE34EF4FEF5FEFC501B40160
:100370007DDFAB01BC01C40ED51EE61EF71EF7FEE5
:1003800006C081E0C81AD108E10880E8F80AC882EE
:10039000D982EA82FB82E894F7F8B601C701DF91BF
:1003A000CF91FF90EF90DF90CF90BF90AF909F9054
:1003B0008F900895B1DF089580E690E0ADDF089555
:1003C000609360007093610080936200909363007B
:0603D0000895F894FFCF30
:0603D60001000000963258
:00000001FF
